{
  "contractName": "MovieRatings",
  "abi": [
    {
      "inputs": [],
      "payable": false,
      "stateMutability": "nonpayable",
      "type": "constructor"
    },
    {
      "anonymous": false,
      "inputs": [
        {
          "indexed": false,
          "internalType": "uint256",
          "name": "movieId",
          "type": "uint256"
        },
        {
          "indexed": false,
          "internalType": "string",
          "name": "name",
          "type": "string"
        }
      ],
      "name": "MovieAdded",
      "type": "event"
    },
    {
      "anonymous": false,
      "inputs": [
        {
          "indexed": false,
          "internalType": "uint256",
          "name": "reviewId",
          "type": "uint256"
        },
        {
          "indexed": false,
          "internalType": "uint256",
          "name": "movieId",
          "type": "uint256"
        },
        {
          "indexed": true,
          "internalType": "address",
          "name": "user",
          "type": "address"
        },
        {
          "indexed": false,
          "internalType": "uint8",
          "name": "score",
          "type": "uint8"
        },
        {
          "indexed": false,
          "internalType": "string",
          "name": "text",
          "type": "string"
        },
        {
          "indexed": false,
          "internalType": "uint256",
          "name": "totalRatings",
          "type": "uint256"
        },
        {
          "indexed": false,
          "internalType": "uint256",
          "name": "totalScores",
          "type": "uint256"
        },
        {
          "indexed": false,
          "internalType": "uint256",
          "name": "timestamp",
          "type": "uint256"
        }
      ],
      "name": "MovieRated",
      "type": "event"
    },
    {
      "payable": false,
      "stateMutability": "nonpayable",
      "type": "fallback"
    },
    {
      "constant": true,
      "inputs": [
        {
          "internalType": "uint256",
          "name": "",
          "type": "uint256"
        }
      ],
      "name": "movies",
      "outputs": [
        {
          "internalType": "uint256",
          "name": "id",
          "type": "uint256"
        },
        {
          "internalType": "string",
          "name": "name",
          "type": "string"
        },
        {
          "internalType": "uint256",
          "name": "totalRatings",
          "type": "uint256"
        },
        {
          "internalType": "uint256",
          "name": "totalScores",
          "type": "uint256"
        }
      ],
      "payable": false,
      "stateMutability": "view",
      "type": "function"
    },
    {
      "constant": true,
      "inputs": [],
      "name": "owner",
      "outputs": [
        {
          "internalType": "address",
          "name": "",
          "type": "address"
        }
      ],
      "payable": false,
      "stateMutability": "view",
      "type": "function"
    },
    {
      "constant": true,
      "inputs": [],
      "name": "reviewCount",
      "outputs": [
        {
          "internalType": "uint256",
          "name": "",
          "type": "uint256"
        }
      ],
      "payable": false,
      "stateMutability": "view",
      "type": "function"
    },
    {
      "constant": true,
      "inputs": [
        {
          "internalType": "uint256",
          "name": "",
          "type": "uint256"
        },
        {
          "internalType": "address",
          "name": "",
          "type": "address"
        }
      ],
      "name": "reviews",
      "outputs": [
        {
          "internalType": "uint256",
          "name": "id",
          "type": "uint256"
        },
        {
          "internalType": "uint256",
          "name": "movieId",
          "type": "uint256"
        },
        {
          "internalType": "address",
          "name": "user",
          "type": "address"
        },
        {
          "internalType": "uint8",
          "name": "score",
          "type": "uint8"
        },
        {
          "internalType": "string",
          "name": "text",
          "type": "string"
        },
        {
          "internalType": "uint256",
          "name": "timestamp",
          "type": "uint256"
        }
      ],
      "payable": false,
      "stateMutability": "view",
      "type": "function"
    },
    {
      "constant": false,
      "inputs": [
        {
          "internalType": "string",
          "name": "_name",
          "type": "string"
        }
      ],
      "name": "addMovie",
      "outputs": [
        {
          "internalType": "uint256",
          "name": "movieId_",
          "type": "uint256"
        }
      ],
      "payable": false,
      "stateMutability": "nonpayable",
      "type": "function"
    },
    {
      "constant": true,
      "inputs": [],
      "name": "getMoviesCount",
      "outputs": [
        {
          "internalType": "uint256",
          "name": "count_",
          "type": "uint256"
        }
      ],
      "payable": false,
      "stateMutability": "view",
      "type": "function"
    },
    {
      "constant": true,
      "inputs": [
        {
          "internalType": "uint256",
          "name": "_movieId",
          "type": "uint256"
        }
      ],
      "name": "getMovie",
      "outputs": [
        {
          "internalType": "uint256",
          "name": "id_",
          "type": "uint256"
        },
        {
          "internalType": "string",
          "name": "name_",
          "type": "string"
        },
        {
          "internalType": "uint256",
          "name": "totalRatings_",
          "type": "uint256"
        },
        {
          "internalType": "uint256",
          "name": "totalScores_",
          "type": "uint256"
        }
      ],
      "payable": false,
      "stateMutability": "view",
      "type": "function"
    },
    {
      "constant": false,
      "inputs": [
        {
          "internalType": "uint256",
          "name": "_movieId",
          "type": "uint256"
        },
        {
          "internalType": "uint8",
          "name": "_score",
          "type": "uint8"
        },
        {
          "internalType": "string",
          "name": "_text",
          "type": "string"
        }
      ],
      "name": "rateMovie",
      "outputs": [],
      "payable": false,
      "stateMutability": "nonpayable",
      "type": "function"
    },
    {
      "constant": true,
      "inputs": [
        {
          "internalType": "uint256",
          "name": "_movieId",
          "type": "uint256"
        }
      ],
      "name": "totalRatings",
      "outputs": [
        {
          "internalType": "uint256",
          "name": "totalRatings_",
          "type": "uint256"
        }
      ],
      "payable": false,
      "stateMutability": "view",
      "type": "function"
    },
    {
      "constant": true,
      "inputs": [
        {
          "internalType": "uint256",
          "name": "_movieId",
          "type": "uint256"
        }
      ],
      "name": "totalScores",
      "outputs": [
        {
          "internalType": "uint256",
          "name": "totalScores_",
          "type": "uint256"
        }
      ],
      "payable": false,
      "stateMutability": "view",
      "type": "function"
    },
    {
      "constant": true,
      "inputs": [
        {
          "internalType": "uint256",
          "name": "_movieId",
          "type": "uint256"
        }
      ],
      "name": "averageScore",
      "outputs": [
        {
          "internalType": "uint256",
          "name": "averageScores_",
          "type": "uint256"
        }
      ],
      "payable": false,
      "stateMutability": "view",
      "type": "function"
    }
  ],
  "bytecode": "0x608060405234801561001057600080fd5b5033600160006101000a81548173ffffffffffffffffffffffffffffffffffffffff021916908373ffffffffffffffffffffffffffffffffffffffff1602179055506116a4806100616000396000f3fe608060405234801561001057600080fd5b50600436106100a95760003560e01c80638a8f221a116100715780638a8f221a146103795780638da5cb5b146103bb57806390b5a27214610405578063c12804fb146104d7578063e20da8e0146105f3578063eff5924f14610611576100a9565b8063157775df146100ae578063179ffe76146100f0578063404ebf6c146101ac57806372511e47146102685780637474783714610337575b600080fd5b6100da600480360360208110156100c457600080fd5b810190808035906020019092919050505061062f565b6040518082815260200191505060405180910390f35b61011c6004803603602081101561010657600080fd5b81019080803590602001909291905050506106e3565b6040518085815260200180602001848152602001838152602001828103825285818151815260200191508051906020019080838360005b8381101561016e578082015181840152602081019050610153565b50505050905090810190601f16801561019b5780820380516001836020036101000a031916815260200191505b509550505050505060405180910390f35b6101d8600480360360208110156101c257600080fd5b810190808035906020019092919050505061089f565b6040518085815260200180602001848152602001838152602001828103825285818151815260200191508051906020019080838360005b8381101561022a57808201518184015260208101905061020f565b50505050905090810190601f1680156102575780820380516001836020036101000a031916815260200191505b509550505050505060405180910390f35b6103216004803603602081101561027e57600080fd5b810190808035906020019064010000000081111561029b57600080fd5b8201836020820111156102ad57600080fd5b803590602001918460018302840111640100000000831117156102cf57600080fd5b91908080601f016020809104026020016040519081016040528093929190818152602001838380828437600081840152601f19601f820116905080830192505050505050509192919290505050610974565b6040518082815260200191505060405180910390f35b6103636004803603602081101561034d57600080fd5b8101908080359060200190929190505050610cd1565b6040518082815260200191505060405180910390f35b6103a56004803603602081101561038f57600080fd5b8101908080359060200190929190505050610d85565b6040518082815260200191505060405180910390f35b6103c3610ef9565b604051808273ffffffffffffffffffffffffffffffffffffffff1673ffffffffffffffffffffffffffffffffffffffff16815260200191505060405180910390f35b6104d56004803603606081101561041b57600080fd5b8101908080359060200190929190803560ff1690602001909291908035906020019064010000000081111561044f57600080fd5b82018360208201111561046157600080fd5b8035906020019184600183028401116401000000008311171561048357600080fd5b91908080601f016020809104026020016040519081016040528093929190818152602001838380828437600081840152601f19601f820116905080830192505050505050509192919290505050610f1f565b005b610523600480360360408110156104ed57600080fd5b8101908080359060200190929190803573ffffffffffffffffffffffffffffffffffffffff169060200190929190505050611481565b604051808781526020018681526020018573ffffffffffffffffffffffffffffffffffffffff1673ffffffffffffffffffffffffffffffffffffffff1681526020018460ff1660ff16815260200180602001838152602001828103825284818151815260200191508051906020019080838360005b838110156105b3578082015181840152602081019050610598565b50505050905090810190601f1680156105e05780820380516001836020036101000a031916815260200191505b5097505050505050505060405180910390f35b6105fb61158f565b6040518082815260200191505060405180910390f35b61061961159b565b6040518082815260200191505060405180910390f35b60008160008111801561064757506000805490508111155b6106b9576040517f08c379a00000000000000000000000000000000000000000000000000000000081526004018080602001828103825260108152602001807f496e76616c6964206d6f7669652069640000000000000000000000000000000081525060200191505060405180910390fd5b600060018403815481106106c957fe5b906000526020600020906004020160030154915050919050565b600060606000808460008111801561070057506000805490508111155b610772576040517f08c379a00000000000000000000000000000000000000000000000000000000081526004018080602001828103825260108152602001807f496e76616c6964206d6f7669652069640000000000000000000000000000000081525060200191505060405180910390fd5b60006001870390506000818154811061078757fe5b9060005260206000209060040201600001549550600081815481106107a857fe5b90600052602060002090600402016001018054600181600116156101000203166002900480601f01602080910402602001604051908101604052809291908181526020018280546001816001161561010002031660029004801561084d5780601f106108225761010080835404028352916020019161084d565b820191906000526020600020905b81548152906001019060200180831161083057829003601f168201915b505050505094506000818154811061086157fe5b90600052602060002090600402016002015493506000818154811061088257fe5b906000526020600020906004020160030154925050509193509193565b600081815481106108ac57fe5b9060005260206000209060040201600091509050806000015490806001018054600181600116156101000203166002900480601f01602080910402602001604051908101604052809291908181526020018280546001816001161561010002031660029004801561095e5780601f106109335761010080835404028352916020019161095e565b820191906000526020600020905b81548152906001019060200180831161094157829003601f168201915b5050505050908060020154908060030154905084565b6000600160009054906101000a900473ffffffffffffffffffffffffffffffffffffffff1673ffffffffffffffffffffffffffffffffffffffff163373ffffffffffffffffffffffffffffffffffffffff1614610a39576040517f08c379a00000000000000000000000000000000000000000000000000000000081526004018080602001828103825260168152602001807f496e76616c696420636f6e7472616374206f776e65720000000000000000000081525060200191505060405180910390fd5b60005b600080549050811015610b8957610b0960008281548110610a5957fe5b90600052602060002090600402016001018054600181600116156101000203166002900480601f016020809104026020016040519081016040528092919081815260200182805460018160011615610100020316600290048015610afe5780601f10610ad357610100808354040283529160200191610afe565b820191906000526020600020905b815481529060010190602001808311610ae157829003601f168201915b5050505050846115a1565b15610b7c576040517f08c379a00000000000000000000000000000000000000000000000000000000081526004018080602001828103825260148152602001807f4d6f76696520616c72656164792065786973747300000000000000000000000081525060200191505060405180910390fd5b8080600101915050610a3c565b5060006040518060800160405280600160008054905001815260200184815260200160008152602001600081525090806001815401808255809150509060018203906000526020600020906004020160009091929091909150600082015181600001556020820151816001019080519060200190610c089291906115ca565b50604082015181600201556060820151816003015550505060008054905090507fdf42019df16172a4cf62587bc192fc5a8776766d2663cb4d32ced057e8f4a28081836040518083815260200180602001828103825283818151815260200191508051906020019080838360005b83811015610c91578082015181840152602081019050610c76565b50505050905090810190601f168015610cbe5780820380516001836020036101000a031916815260200191505b50935050505060405180910390a1919050565b600081600081118015610ce957506000805490508111155b610d5b576040517f08c379a00000000000000000000000000000000000000000000000000000000081526004018080602001828103825260108152602001807f496e76616c6964206d6f7669652069640000000000000000000000000000000081525060200191505060405180910390fd5b60006001840381548110610d6b57fe5b906000526020600020906004020160020154915050919050565b600081600081118015610d9d57506000805490508111155b610e0f576040517f08c379a00000000000000000000000000000000000000000000000000000000081526004018080602001828103825260108152602001807f496e76616c6964206d6f7669652069640000000000000000000000000000000081525060200191505060405180910390fd5b6000806001850381548110610e2057fe5b90600052602060002090600402016002015411610ea5576040517f08c379a000000000000000000000000000000000000000000000000000000000815260040180806020018281038252600e8152602001807f4e6f20726174696e67732079657400000000000000000000000000000000000081525060200191505060405180910390fd5b60006001840381548110610eb557fe5b90600052602060002090600402016002015460006001850381548110610ed757fe5b90600052602060002090600402016003015481610ef057fe5b04915050919050565b600160009054906101000a900473ffffffffffffffffffffffffffffffffffffffff1681565b82600081118015610f3557506000805490508111155b610fa7576040517f08c379a00000000000000000000000000000000000000000000000000000000081526004018080602001828103825260108152602001807f496e76616c6964206d6f7669652069640000000000000000000000000000000081525060200191505060405180910390fd5b600560ff168360ff1611158015610fc55750600060ff168360ff1610155b611037576040517f08c379a00000000000000000000000000000000000000000000000000000000081526004018080602001828103825260198152602001807f526174696e672073636f7265206f7574206f662072616e67650000000000000081525060200191505060405180910390fd5b60006003600086815260200190815260200160002060003373ffffffffffffffffffffffffffffffffffffffff1673ffffffffffffffffffffffffffffffffffffffff16815260200190815260200160002090503373ffffffffffffffffffffffffffffffffffffffff168160020160009054906101000a900473ffffffffffffffffffffffffffffffffffffffff1673ffffffffffffffffffffffffffffffffffffffff161415611151576040517f08c379a000000000000000000000000000000000000000000000000000000000815260040180806020018281038252600d8152602001807f416c72656164792072617465640000000000000000000000000000000000000081525060200191505060405180910390fd5b60006001860390506001600254016002819055506040518060c0016040528060025481526020018781526020013373ffffffffffffffffffffffffffffffffffffffff1681526020018660ff168152602001858152602001428152506003600088815260200190815260200160002060003373ffffffffffffffffffffffffffffffffffffffff1673ffffffffffffffffffffffffffffffffffffffff168152602001908152602001600020600082015181600001556020820151816001015560408201518160020160006101000a81548173ffffffffffffffffffffffffffffffffffffffff021916908373ffffffffffffffffffffffffffffffffffffffff16021790555060608201518160020160146101000a81548160ff021916908360ff16021790555060808201518160030190805190602001906112959291906115ca565b5060a082015181600401559050506001600082815481106112b257fe5b9060005260206000209060040201600201600082825401925050819055508460ff16600082815481106112e157fe5b9060005260206000209060040201600301600082825401925050819055503373ffffffffffffffffffffffffffffffffffffffff167f3bf1522235af33b876ac6c66a4ce58f965019eec13c0e49656cebba2d6830ff66002548888886000878154811061134a57fe5b9060005260206000209060040201600201546000888154811061136957fe5b906000526020600020906004020160030154600360008f815260200190815260200160002060003373ffffffffffffffffffffffffffffffffffffffff1673ffffffffffffffffffffffffffffffffffffffff16815260200190815260200160002060040154604051808881526020018781526020018660ff1660ff16815260200180602001858152602001848152602001838152602001828103825286818151815260200191508051906020019080838360005b8381101561143957808201518184015260208101905061141e565b50505050905090810190601f1680156114665780820380516001836020036101000a031916815260200191505b509850505050505050505060405180910390a2505050505050565b6003602052816000526040600020602052806000526040600020600091509150508060000154908060010154908060020160009054906101000a900473ffffffffffffffffffffffffffffffffffffffff16908060020160149054906101000a900460ff1690806003018054600181600116156101000203166002900480601f01602080910402602001604051908101604052809291908181526020018280546001816001161561010002031660029004801561157f5780601f106115545761010080835404028352916020019161157f565b820191906000526020600020905b81548152906001019060200180831161156257829003601f168201915b5050505050908060040154905086565b60008080549050905090565b60025481565b600081805190602001208380519060200120146115bf5760006115c2565b60015b905092915050565b828054600181600116156101000203166002900490600052602060002090601f016020900481019282601f1061160b57805160ff1916838001178555611639565b82800160010185558215611639579182015b8281111561163857825182559160200191906001019061161d565b5b509050611646919061164a565b5090565b61166c91905b80821115611668576000816000905550600101611650565b5090565b9056fea265627a7a72315820934ab9874609698a4ce618a12ddddc0cb3887b52477d08d45553cd0dd0e6f29b64736f6c63430005100032",
  "source": "pragma solidity ^0.5.0;\r\n\r\n/** \r\n * @title MovieRatings\r\n * @dev Implements movie ratings process and keeps tracks of customer reviews\r\n */\r\ncontract MovieRatings {\r\n    \r\n    struct Movie {\r\n        uint256 id;\r\n        string name;\r\n        uint256 totalRatings;\r\n        uint256 totalScores;\r\n    }\r\n    \r\n    struct Review {\r\n        uint256 id;\r\n        uint256 movieId;\r\n        address user;\r\n        uint8 score;\r\n        string text;\r\n        uint256 timestamp;\r\n    }\r\n    \r\n    uint8 constant MIN_SCORE = 0;\r\n    uint8 constant MAX_SCORE = 5;\r\n    \r\n    Movie[] public movies;\r\n    address public owner;\r\n    uint256 public reviewCount;\r\n    mapping(uint256 => mapping(address => Review)) public reviews;\r\n\r\n    event MovieAdded(uint256 movieId, string name);\r\n    event MovieRated(\r\n        uint256 reviewId,\r\n        uint256 movieId,\r\n        address indexed user,\r\n        uint8 score,\r\n        string text,\r\n        uint256 totalRatings,\r\n        uint256 totalScores,\r\n        uint256 timestamp);\r\n    \r\n    modifier onlyOwner() {\r\n        require(msg.sender == owner, \"Invalid contract owner\");\r\n        _;\r\n    }\r\n\r\n    modifier restrictMovieId(uint256 _movieId) {\r\n        require(_movieId > 0 && _movieId <= movies.length, \"Invalid movie id\");\r\n        _;\r\n    }\r\n    \r\n    /** \r\n     * @dev Create a new movie ratings application instance.\r\n     */\r\n    constructor() public {\r\n        owner = msg.sender;\r\n    }\r\n\r\n     /** \r\n     * @dev Fallback function\r\n     */\r\n    function() external {\r\n        revert();\r\n    }\r\n\r\n    /** \r\n     * @dev Compare two strings.\r\n     * @param _a1 first string value\r\n     * @param _a2 second string value\r\n     * @return status_ true if two string values are equal, else false\r\n     */\r\n    function _stringsEqual(string memory _a1, string memory _a2) internal pure returns (bool status_) {\r\n        return keccak256(bytes(_a1)) == keccak256(bytes(_a2)) ? true : false;\r\n    }\r\n    \r\n    /** \r\n     * @dev Add movie to array.\r\n     * @param _name movie name\r\n     * @return movieId_ identity of the movie\r\n     */\r\n    function addMovie(string memory _name) public onlyOwner returns (uint256 movieId_) {\r\n        for (uint256 i; i<movies.length; i++) {\r\n            if (_stringsEqual(movies[i].name, _name)) {\r\n                revert('Movie already exists');\r\n            }\r\n        }\r\n\r\n        movies.push(Movie({\r\n            id: movies.length + 1,\r\n            name: _name,\r\n            totalRatings: 0,\r\n            totalScores: 0\r\n        }));\r\n        \r\n        movieId_ = movies.length;\r\n        emit MovieAdded(movieId_, _name);\r\n    }\r\n\r\n     /** \r\n     * @dev Get total number of movies.\r\n     * @return count_ total number movies\r\n     */\r\n    function getMoviesCount() public view returns (uint256 count_) {\r\n        return movies.length;\r\n    }\r\n    \r\n    /** \r\n     * @dev Get details of the given movie.\r\n     * @param _movieId identity of the movie\r\n     * @return id_ identity of the movie\r\n     * @return name_ name of the movie\r\n     * @return totalRatings_ total number of ratings accumulated for the movie\r\n     * @return totalScores_ total scores accumulated for the movie\r\n     */\r\n    function getMovie(uint256 _movieId) public view restrictMovieId(_movieId) returns \r\n        (uint256 id_, string memory name_, uint256 totalRatings_, uint256 totalScores_) {\r\n        uint256 _idx = _movieId - 1;\r\n        id_ = movies[_idx].id;\r\n        name_ = movies[_idx].name;\r\n        totalRatings_ = movies[_idx].totalRatings;\r\n        totalScores_ = movies[_idx].totalScores;\r\n    }\r\n\r\n    /** \r\n     * @dev Rate the given movie.\r\n     * @param _movieId identity of the movie\r\n     * @param _score score of movie ranging from 0 to 5\r\n     * @param _text movie reviews text\r\n     */\r\n    function rateMovie(uint256 _movieId, uint8 _score, string memory _text) public restrictMovieId(_movieId) {\r\n        require(_score <= MAX_SCORE && _score >= MIN_SCORE, \"Rating score out of range\");\r\n        Review storage _review = reviews[_movieId][msg.sender];\r\n        require(address(_review.user) != msg.sender, \"Already rated\");\r\n        \r\n        uint256 _idx = _movieId - 1;\r\n        reviewCount = reviewCount + 1;\r\n        reviews[_movieId][msg.sender] = Review(reviewCount, _movieId, msg.sender, _score, _text, now);\r\n        movies[_idx].totalRatings += 1;\r\n        movies[_idx].totalScores += _score;\r\n\r\n        emit MovieRated(reviewCount, _movieId, msg.sender, _score, _text,\r\n            movies[_idx].totalRatings, movies[_idx].totalScores,\r\n            reviews[_movieId][msg.sender].timestamp);\r\n    }\r\n    \r\n    /** \r\n     * @dev Get total ratings of the given movie received so far.\r\n     * @param _movieId identity of the movie\r\n     * @return totalRatings_ total number of ratings of the movie\r\n     */\r\n    function totalRatings(uint256 _movieId) public view\r\n        restrictMovieId(_movieId) returns (uint256 totalRatings_) {\r\n        return movies[_movieId - 1].totalRatings;\r\n    }\r\n\r\n    /** \r\n     * @dev Get total scores of the given movie received so far.\r\n     * @param _movieId identity of the movie\r\n     * @return totalScores_ total scores of the movie\r\n     */\r\n    function totalScores(uint256 _movieId) public view\r\n        restrictMovieId(_movieId) returns (uint256 totalScores_) {\r\n        return movies[_movieId - 1].totalScores;\r\n    }\r\n\r\n    /** \r\n     * @dev Get average score of the given movie received so far.\r\n     * @param _movieId identity of the movie\r\n     * @return averageScore_ average score of the movie\r\n     */\r\n    function averageScore(uint256 _movieId) public view\r\n        restrictMovieId(_movieId) returns (uint256 averageScores_) {\r\n        require(movies[_movieId - 1].totalRatings > 0, \"No ratings yet\");\r\n\r\n        return movies[_movieId - 1].totalScores/movies[_movieId - 1].totalRatings;\r\n    }\r\n}",
  "sourcePath": "D:/Dev/Git/yokekhei/blockchain/dapp-movie-rating/contracts/MovieRatings.sol",
  "compiler": {
    "name": "solc",
    "version": "0.5.16+commit.9c3226ce.Emscripten.clang"
  },
  "schemaVersion": "3.4.1",
  "updatedAt": "2021-08-07T04:47:55.030Z",
  "networkType": "ethereum",
  "devdoc": {
    "details": "Implements movie ratings process and keeps tracks of customer reviews",
    "methods": {
      "addMovie(string)": {
        "details": "Add movie to array.",
        "params": {
          "_name": "movie name"
        },
        "return": "movieId_ identity of the movie"
      },
      "averageScore(uint256)": {
        "details": "Get average score of the given movie received so far.",
        "params": {
          "_movieId": "identity of the movie"
        },
        "return": "averageScore_ average score of the movie"
      },
      "constructor": {
        "details": "Create a new movie ratings application instance."
      },
      "getMovie(uint256)": {
        "details": "Get details of the given movie.",
        "params": {
          "_movieId": "identity of the movie"
        },
        "return": "id_ identity of the moviename_ name of the movietotalRatings_ total number of ratings accumulated for the movietotalScores_ total scores accumulated for the movie"
      },
      "getMoviesCount()": {
        "details": "Get total number of movies.",
        "return": "count_ total number movies"
      },
      "rateMovie(uint256,uint8,string)": {
        "details": "Rate the given movie.",
        "params": {
          "_movieId": "identity of the movie",
          "_score": "score of movie ranging from 0 to 5",
          "_text": "movie reviews text"
        }
      },
      "totalRatings(uint256)": {
        "details": "Get total ratings of the given movie received so far.",
        "params": {
          "_movieId": "identity of the movie"
        },
        "return": "totalRatings_ total number of ratings of the movie"
      },
      "totalScores(uint256)": {
        "details": "Get total scores of the given movie received so far.",
        "params": {
          "_movieId": "identity of the movie"
        },
        "return": "totalScores_ total scores of the movie"
      }
    },
    "title": "MovieRatings"
  },
  "userdoc": {
    "methods": {}
  }
}